:100AF500020800000A1400000000000000000000C9
:100B05000A0A000000000000000000000A1E0000A4
:0C0B1500000000000000000002280000AA
:0E0B9B00538EF0E58954F04401F589D2A92269
:100B2200E4FFFEE4FCFD0DBD00010CED64644C70BD
:0C0B3200F50FBF00010EBE03EABFE8E7AC
:010B3E002294
:100B3F00E4FFFEE4FCFD0DBD00010CBC01F8BDF4AB
:0C0B4F00F50FBF00010EBE03EABFE8E78F
:010B5B002277
:100B5C00E4FFFEE4FCFD0DBD00010CED645A4C708D
:0C0B6C00F50FBF00010EBE03EABFE8E772
:010B7800225A
:100B7900D2B4C2B5120B22C2B4D2B5120B5CC2B543
:010B89002249
:100B8A00C2B4D2B5120B22C2B5D2B4120B5CC2B433
:010B9A002238
:100A450020A006750A00750B0120A106750C00751E
:100A55000D0120A206750E00750F0120A306751065
:100A65000075110120A40675120075130120A50655
:100A750075200075210120A6067522007523012029
:100A8500A706752400752501E5B020E606751E004C
:100A9500751F01E5B020E006751600751701E5B074
:100AA50020E106751800751901E5B020E206751AF2
:100AB50000751B01E5B020E306751C00751D0122BC
:03000B00020BA93C
:080BA900C0E0120A45D0E03261
:100AC500EF4E700475903F22EF64014E70047590EF
:100AD5000622EF64024E700475905B22EF64034EAC
:100AE500700475904F22EF64044E70037590662272
:1008000075FFDE75FFAD75B214E4F5E1F5E275E351
:100810004043A40843A57F120B9BD2AFD28C120A8F
:1008200045AF09AE08120AC5E4F528F529F528F503
:1008300029AF29EF25E0240AF8E6FC08E64C701DF4
:10084000EF25E02414F8E6FE08E64E7010EF25E0F0
:10085000241EF8E6FE08E64E70030208DDD3E52903
:100860009509E5086480F8E528648098406FE509FB
:1008700065297004E50865286063120B790509E5B0
:100880000970020508FFAE08120AC5AF09EF25E09E
:10089000240AF8E6FC08E64C701AEF25E02414F868
:1008A000E6FE08E64E700DEF25E0241EF8E6FE0891
:1008B000E64E60BAAF09EF25E0240AF8E4F608F640
:1008C000EF25E02414F8E4F608F6EF25E0241EF8FE
:1008D000E4F608F6D297120B3FC29780910529E5FE
:1008E0002970020528C39405E5286480948050038C
:1008F000020831752800752904752800752904C37C
:10090000E528648094805003020821AF29EF25E098
:10091000240AF8E6FC08E64C701AEF25E0241EF8DD
:10092000E6FE08E64E700DEF25E02414F8E6FE081A
:10093000E64E607AC3E5299509E5086480F8E52864
:100940006480985069E50965297004E508652860A8
:100950005D120B8AE509150970021508AF09AE088A
:10096000120AC5AF09EF25E0240AF8E6FC08E64CB8
:10097000701AEF25E0241EF8E6FE08E64E700DEF33
:1009800025E02414F8E6FE08E64E60B9AF09EF252D
:10099000E0240AF8E4F608F6EF25E0241EF8E4F671
:1009A00008F6EF25E02414F8E4F608F68097E52928
:0909B0001529700215280208FF48
:030000000209B939
:0C09B900787FE4F6D8FD758129020A0061
:1009C500020800E493A3F8E493A34003F68001F240
:1009D50008DFF48029E493A3F85407240CC8C33333
:1009E500C4540F4420C8834004F456800146F6DF02
:1009F500E4800B0102040810204080900AF5E47E93
:100A0500019360BCA3FF543F30E509541FFEE493F6
:100A1500A360010ECF54C025E060A840B8E493A3BD
:100A2500FAE493A3F8E493A3C8C582C8CAC583CAE8
:100A3500F0A3C8C582C8CAC583CADFE9DEE780BEA0
:010B210000D3
:00000001FF
