:100AF400020800000A1400000000000000000000CA
:100B04000A0A000000000000000000000A1E0000A5
:0C0B1400000000000000000002280000AB
:0E0B9A00538EF0E58954F04401F589D2A9226A
:100B2100E4FFFEE4FCFD0DBD00010CED64644C70BE
:0C0B3100F50FBF00010EBE03EABFE8E7AD
:010B3D002295
:100B3E00E4FFFEE4FCFD0DBD00010CBC03F8BDE8B6
:0C0B4E00F50FBF00010EBE03EABFE8E790
:010B5A002278
:100B5B00E4FFFEE4FCFD0DBD00010CED645A4C708E
:0C0B6B00F50FBF00010EBE03EABFE8E773
:010B7700225B
:100B7800D2B4C2B5120B21C2B4D2B5120B5BC2B546
:010B8800224A
:100B8900C2B4D2B5120B21C2B5D2B4120B5BC2B436
:010B99002239
:0C0BA800D297C280120B3EC297D280226E
:100A440020A006750A00750B0120A106750C00751F
:100A54000D0120A206750E00750F0120A306751066
:100A64000075110120A40675120075130120A50656
:100A740075200075210120A606752200752301202A
:100A8400A706752400752501E5B020E606751E004D
:100A9400751F01E5B020E006751600751701E5B075
:100AA40020E106751800751901E5B020E206751AF3
:100AB40000751B01E5B020E306751C00751D0122BD
:03000B00020BB431
:080BB400C0E0120A44D0E03257
:100AC400EF4E700475903F22EF64014E70047590F0
:100AD4000622EF64024E700475905B22EF64034EAD
:100AE400700475904F22EF64044E70037590662273
:1008000075FFDE75FFAD75B214E4F5E1F5E275E351
:100810004043A40843A57F120B9AD2AFD28C120A90
:1008200044AF09AE08120AC4E4F528F529F528F505
:1008300029AF29EF25E0240AF8E6FC08E64C701AF7
:10084000EF25E02414F8E6FE08E64E700DEF25E0F3
:10085000241EF8E6FE08E64E607CD3E5299509E5FE
:10086000086480F8E528648098406BE50965297084
:1008700004E5086528605F120B780509E509700238
:100880000508FFAE08120AC4AF09EF25E0240AF8F4
:10089000E6FC08E64C701AEF25E02414F8E6FE08A2
:1008A000E64E700DEF25E0241EF8E6FE08E64E60E9
:1008B000BAAF09EF25E0240AF8E4F608F6EF25E0E0
:1008C0002414F8E4F608F6EF25E0241EF8E4F60810
:1008D000F6120BA880950529E52970020528C39416
:1008E00005E528648094805003020831752800755E
:1008F0002904752800752904C3E528648094805074
:1009000003020821AF29EF25E0240AF8E6FC08E6F7
:100910004C701DEF25E0241EF8E6FE08E64E701030
:10092000EF25E02414F8E6FE08E64E70030209AD58
:10093000C3E5299509E5086480F8E52864809850A6
:100940006CE50965297004E50865286060120B896B
:10095000E509150970021508AF09AE08120AC4AFFF
:1009600009EF25E0240AF8E6FC08E64C701AEF25AA
:10097000E0241EF8E6FE08E64E700DEF25E0241494
:10098000F8E6FE08E64E60B9AF09EF25E0240AF864
:10099000E4F608F6EF25E0241EF8E4F608F6EF2565
:1009A000E02414F8E4F608F6120BA88094E5291563
:0809B00029700215280208F865
:030000000209B83A
:0C09B800787FE4F6D8FD7581290209FF64
:1009C400020800E493A3F8E493A34003F68001F241
:1009D40008DFF48029E493A3F85407240CC8C33334
:1009E400C4540F4420C8834004F456800146F6DF03
:1009F400E4800B0102040810204080900AF4E47E95
:100A0400019360BCA3FF543F30E509541FFEE493F7
:100A1400A360010ECF54C025E060A840B8E493A3BE
:100A2400FAE493A3F8E493A3C8C582C8CAC583CAE9
:100A3400F0A3C8C582C8CAC583CADFE9DEE780BEA1
:010B200000D4
:00000001FF
