:100AE400020800000A1400000000000000000000DA
:100AF4000A0A000000000000000000000A1E0000B6
:0C0B0400000000000000000002280000BB
:100B1100E4FFFEE4FCFD0DBD00010CED64644C70CE
:0C0B2100F50FBF00010EBE03EABFE8E7BD
:010B2D0022A5
:100B2E00E4FFFEE4FCFD0DBD00010CED645A4C70BB
:0C0B3E00F50FBF00010EBE03EABFE8E7A0
:010B4A002288
:100B4B00D2B4C2B5120B11C2B4D2B5120B2EC2B5B0
:010B5B002277
:100B5C00C2B4D2B5120B11C2B5D2B4120B2EC2B4A0
:010B6C002266
:100A340020A006750A00750B0120A106750C00752F
:100A44000D0120A206750E00750F0120A306751076
:100A54000075110120A40675120075130120A50666
:100A640075200075210120A606752200752301203A
:100A7400A706752400752501E5B020E606751E005D
:100A8400751F01E5B020E006751600751701E5B085
:100A940020E106751800751901E5B020E206751A03
:100AA40000751B01E5B020E306751C00751D0122CD
:100AB400EF4E700475903F22EF64014E7004759000
:100AC4000622EF64024E700475905B22EF64034EBD
:100AD400700475904F22EF64044E70037590662283
:1008000075FFDE75FFAD75B214E4F5E1F5E275E351
:100810004043A40843A57FAF09AE08120AB4120AE8
:1008200034E4F528F529F528F529AF29EF25E0244A
:100830000AF8E6FC08E64C701AEF25E02414F8E606
:10084000FE08E64E700DEF25E0241EF8E6FE08E6F1
:100850004E6079D3E5299509E5086480F8E52864B8
:1008600080984068E50965297004E5086528605CA2
:10087000120B4B0509E50970020508FFAE08120AC4
:10088000B4AF09EF25E0240AF8E6FC08E64C701A3C
:10089000EF25E02414F8E6FE08E64E700DEF25E0A3
:1008A000241EF8E6FE08E64E60BAAF09EF25E02404
:1008B0000AF8E4F608F6EF25E02414F8E4F608F662
:1008C000EF25E0241EF8E4F608F680980529E529CE
:1008D00070020528C39405E52864809480500302C3
:1008E000082A752800752904752800752904C3E5B0
:1008F00028648094805003020817AF29EF25E02474
:100900000AF8E6FC08E64C701AEF25E0241EF8E62B
:10091000FE08E64E700DEF25E02414F8E6FE08E62A
:100920004E607AC3E5299509E5086480F8E52864F6
:1009300080985069E50965297004E5086528605DBF
:10094000120B5CE509150970021508AF09AE081213
:100950000AB4AF09EF25E0240AF8E6FC08E64C707B
:100960001AEF25E0241EF8E6FE08E64E700DEF258E
:10097000E02414F8E6FE08E64E60B9AF09EF25E082
:10098000240AF8E4F608F6EF25E0241EF8E4F60859
:10099000F6EF25E02414F8E4F608F68097E529152B
:0809A00029700215280208EE7F
:030000000209A84A
:0C09A800787FE4F6D8FD7581290209EF84
:1009B400020800E493A3F8E493A34003F68001F251
:1009C40008DFF48029E493A3F85407240CC8C33344
:1009D400C4540F4420C8834004F456800146F6DF13
:1009E400E4800B0102040810204080900AE4E47EB5
:1009F400019360BCA3FF543F30E509541FFEE49308
:100A0400A360010ECF54C025E060A840B8E493A3CE
:100A1400FAE493A3F8E493A3C8C582C8CAC583CAF9
:100A2400F0A3C8C582C8CAC583CADFE9DEE780BEB1
:010B100000E4
:00000001FF
